:040000000258B832B8
:01000B0032C2
:0100130032BA
:01001B0032B2
:030023000242DEB8
:03002B00021DD7DC
:0359210002002E53
:05002E0012003380FE0A
:06003300C01285811212CB
:09003900018112386E758201127A
:0C00420039E5758202123EB97582001289
:0E004E003C9874C8C0E07400C0E074C2C0E00A
:0E005C007401C0E07400C0E07582021244E638
:0E006A00E58124FBF5817582021247AA7ACD4A
:0E0078007BAB7C017400C0E07400C0E074003B
:0E008600C0E07400C0E0C002C003C00474BA41
:0C009400C0E07400C0E07468C0E07408B4
:0C00A000C0E07402C0E07582AB758306FE
:0E00AC0012087BE58124F4F5817400C0E07435
:0E00BA0000C0E07400C0E07400C0E07400C03C
:0E00C800E07400C0E07400C0E074BAC0E074E0
:0C00D60000C0E07470C0E07408C0E0746A
:0A00E20002C0E07582557583031219
:0E00EC00087BE58124F4F5817400C0E0740007
:0E00FA00C0E07400C0E07400C0E07400C0E01C
:0E0108007400C0E07400C0E074BAC0E074007F
:0C011600C0E07470C0E07408C0E0740227
:09012200C0E07582FD7583041232
:0E012B00087BE58124F4F5817400C0E07400C7
:0E013900C0E07400C0E07403C0E07400C0E0D9
:0E0147007400C0E07400C0E074BAC0E0740040
:0C015500C0E07475C0E07408C0E07402E3
:09016100C0E075827C7583021276
:0E016A00087BE58124F4F58175820175830020
:03017800120C8ED8
:06017B00851281D0122262
:0C018100C012858112AA8475840F759647
:0E018D000075FFDE75FFAD43A54043E104435E
:0E019B00A40375E340C0021201AFD0028A84B3
:0601A900851281D0122234
:0C01AF00C01285811205810581AA8475AB
:0C01BB00840F758A83A81208E4F608F689
:0D01C700A81208C3E694FF08E69402400366
:0301D4000201E63F
:0D01D700A81208740126F674000836F6021E
:0201E40001C751
:0E01E6005389FB75840043B73075840F43893D
:0D01F40001758D01758F01758E04A812082C
:04020100E4F608F621
:0D020500A81208C3E694FF08E69402400327
:03021200020224C1
:0D021500A81208740126F674000836F602DF
:020222000205D3
:0A022400438902A81208E4F608F668
:0D022E00A81208C3E694FF08E694024003FE
:03023B0002025567
:08023E00E58930E403020255DA
:0D024600A81208740126F674000836F602AE
:02025300022E79
:050255004397028A84BA
:06025A00851281D0122282
:0B026000C012858112E59020E6030229
:02026B0002731C
:06026D005390BF0202766F
:0302730043904075
:06027600851281D0122266
:09027C00C0128581127A007B009A
:0E028500901F79E0FCA3E0FDBC0005BD000267
:020293008003E6
:030295000202ACB6
:0E029800758288758313C002C003120B80D0DC
:0602A60003D0020202BDBC
:0E02AC007582FA758300C002C003120B80D069
:0302BA0003D0026C
:0E02BD00C002C003123E2EAC82AD83D003D02F
:0A02CB0002BC0106BD00030202D9C7
:0402D5007A017B002F
:0E02D900C002C00312415AAC82AD83D003D0E4
:0A02E70002BC0106BD00030202F58F
:0402F1007A017B0013
:0E02F500C002C003124771AC82AD83D003D0AB
:0A03030002BC0106BD000302031155
:04030D007A017B00F6
:0E031100C002C003124F39AC82AD83D003D0BE
:0A031F0002BC0106BD000302032D1D
:040329007A017B00DA
:08032D00BA0105BB00028003C8
:030335000203417F
:09033800901F797401F0E4A3F0B8
:0E034100C002C003120260D003D00202028587
:06034F00851281D012228C
:0B035500C012858112E581240CF581A7
:0D036000A81208762B08765208769A0876C7
:0D036D00C4E5122405F876DD08769A0876BE
:0D037A0012087645E5122405F8E6C0E008FB
:0D038700E6C0E008E6C0E008E6C0E0A8120D
:0E0394000886820886830886F008E61251BFAC
:0E03A200AA82AB83ACF0FDE58124FCF581E579
:0D03B000122409F8A60208A60308A60408F6
:0E03BD00A60574CDC0E074E4C0E0748AC0E010
:0D03CB007444C0E0E5122409F8868208861B
:0E03D800830886F008E61250FFAA82E5812411
:0903E600FCF581EA600302041F2A
:0E03EF00749AC0E074E1C0E0748AC0E0744407
:0D03FD00C0E0E5122409F886820886830816
:0E040A0086F008E612516FAA82E58124FCF507
:0704180081EA7003020439C0
:0E041F00C0E0C0A8C2AF901F797401F0E4A342
:0C042D00F0D0E053E080E5E042A8D0E011
:0D043900E5122405F8E6C0E008E6C0E00882
:0D044600E6C0E008E6C0E0A81208868208C3
:0E04530086830886F008E6125640AA82AB8324
:0D046100ACF0FDE58124FCF581E5122409D5
:0E046E00F8A60208A60308A60408A605745CFA
:0E047C00C0E0748FC0E07402C0E074BFC0E046
:0D048A00E5122409F886820886830886F0B2
:0E04970008E61250FFAA82E58124FCF581EAF6
:0504A50060030204DA0F
:0E04AA007414C0E074AEC0E07407C0E074BF0C
:0D04B800C0E0E5122409F88682088683085A
:0E04C50086F008E612516FAA82E58124FCF54C
:0704D30081EA7003020360DF
:0E04DA00C0E0C0A8C2AF901F797401F0E4A387
:0D04E800F0D0E053E080E5E042A8D0E00253
:0204F5000360A2
:0604F700851281D01222E3
:0B04FD00C012858112E581240CF581FE
:0D050800A8120876450876D20876400876DD
:0D051500C6E5122405F8765C0876350876F8
:0D052200B7087646E5122405F8E6C0E008AB
:0D052F00E6C0E008E6C0E008E6C0E0A81263
:0E053C000886820886830886F008E61251BF02
:0E054A00AA82AB83ACF0FDE58124FCF581E5CF
:0D055800122409F8A60208A60308A604084C
:0E056500A605749AC0E07498C0E0742DC0E042
:0D0573007446C0E0E5122409F8868208866F
:0E058000830886F008E61250FFAA82E5812467
:09058E00FCF581EA60030205C7D7
:0E0597007433C0E07498C0E0742DC0E0744668
:0D05A500C0E0E5122409F88682088683086C
:0E05B20086F008E612516FAA82E58124FCF55E
:0705C00081EA70030205E16E
:0E05C700C0E0C0A8C2AF901F797401F0E4A399
:0C05D500F0D0E053E080E5E042A8D0E068
:0D05E100E5122405F886020886030886044A
:0E05EE0008E6B2E7FDC002C003C004C005A8C5
:0D05FC00120886820886830886F008E61241
:0E0609005640AA82AB83ACF0FDE58124FCF5DF
:0D06170081E5122409F8A60208A60308A632
:0E0624000408A6057414C0E074AEC0E07407AC
:0D063200C0E0743FC0E0E5122409F88682A4
:0E063F000886830886F008E61250FFAA82E5BE
:0B064D008124FCF581EA6003020688AE
:0E065800745CC0E0748FC0E07402C0E0743FB8
:0D066600C0E0E5122409F8868208868308AA
:0E06730086F008E612516FAA82E58124FCF59C
:0706810081EA700302050885
:0E068800C0E0C0A8C2AF901F797401F0E4A3D7
:0D069600F0D0E053E080E5E042A8D0E002A3
:0206A300050848
:0606A500851281D0122233
:0506AB00C01285811260
:0806B000E581B40E030206D23D
:0E06B800C0E0C0A8C2AF901F797401F0E4A3A7
:0C06C600F0D0E053E080E5E042A8D0E076
:0A06D2008500E0E5E070030206F683
:0E06DC00C0E0C0A8C2AF901F797401F0E4A383
:0C06EA00F0D0E053E080E5E042A8D0E052
:0B06F6008501E0E5E0B4010302071BF2
:0E070100C0E0C0A8C2AF901F797401F0E4A35D
:0C070F00F0D0E053E080E5E042A8D0E02C
:0B071B008502E0E5E0B40203020740A5
:0E072600C0E0C0A8C2AF901F797401F0E4A338
:0C073400F0D0E053E080E5E042A8D0E007
:0B0740008503E0E5E0B4030302076559
:0E074B00C0E0C0A8C2AF901F797401F0E4A313
:0C075900F0D0E053E080E5E042A8D0E0E2
:0B0765008504E0E5E0B4040302078A0D
:0E077000C0E0C0A8C2AF901F797401F0E4A3EE
:0C077E00F0D0E053E080E5E042A8D0E0BD
:0B078A008505E0E5E0B405030207AFC1
:0E079500C0E0C0A8C2AF901F797401F0E4A3C9
:0C07A300F0D0E053E080E5E042A8D0E098
:0B07AF008506E0E5E0B406030207D475
:0E07BA00C0E0C0A8C2AF901F797401F0E4A3A4
:0C07C800F0D0E053E080E5E042A8D0E073
:0B07D4008507E0E5E0B407030207F929
:0E07DF00C0E0C0A8C2AF901F797401F0E4A37F
:0C07ED00F0D0E053E080E5E042A8D0E04E
:0807F900E582B4CD0302081BE8
:0E080100C0E0C0A8C2AF901F797401F0E4A35C
:0C080F00F0D0E053E080E5E042A8D0E02B
:08081B00E583B4AB0302083DC4
:0E082300C0E0C0A8C2AF901F797401F0E4A33A
:0C083100F0D0E053E080E5E042A8D0E009
:08083D00E5F0B401030206B06E
:0E084500C0E0C0A8C2AF901F797401F0E4A318
:0D085300F0D0E053E080E5E042A8D0E002E4
:0208600006B0E0
:06086200851281D0122274
:080868005265674368636B00F1
:05087000464C4F500052
:06087500436865636B009F
:02592400000081
:065911009000A07400F0FC
:0C087B00C012858112C082C083E5812478
:0D08870008F581E51224F9F88682088683C1
:0D089400121938AC82AD83AEF0A81208082E
:0D08A10008A60408A60508A606A812080867
:0D08AE0008B6000B08B6000708B6000302EC
:0208BB000AF938
:0C08BD00E51224F5F8E6C0E0E51224FB8B
:0D08C900F8E6C0E008E6C0E008E6C0E0E5A3
:0C08D6001224F9F8E6C0E008E6C0E0A833
:0D08E2001208080886820886830886F01236
:0D08EF001694E58124FAF581A81208080886
:0E08FC00740326FF74000836FA0886038F8204
:0E090A008A838BF01256D8FFA31256D8FAA398
:0D0918001256D8FBE51224F6F8E6C0E00800
:0D092500E6C0E008E6C0E0A81208E6C0E069
:0E09320008E6C0E08F828A838BF0121A2DAA8D
:0D09400082AB83AFF0E58124FBF581A812A6
:0D094D0008080886820886830886F0EA12F2
:0A095A005141A3EB125141A3EF122B
:0E0964005141C0E0C0A8C2AF901F80E0FAA3CE
:0E097200E0FB901F8074012502F07400350335
:0E098000A3F0901F80E0FAA3E0FBBA0105BBD4
:04098E0000028003E0
:030992000209B1A6
:0D099500A812080808901F7BE6F008A3E6F2
:0D09A200F008A3E6F0121871AA82AB8302E0
:0209AF000A0A32
:0E09B1007A017B00901F86E0FFBF00028003EA
:0309BF00020A0A1F
:0E09C200C002C003901F7BE0FFA3E0FAA3E099
:0E09D000FB74182507FF74003502FA8F828A27
:0D09DE00838BF01256D8FFE51224F5F8C304
:0D09EB00E69FE433D003D0026003020A0A45
:0D09F800A812080808901F7BE6F008A3E68F
:050A0500F008A3E6F07B
:0D0A0A00C002C003A812080808741826FFD7
:0E0A170074000836FA0886038F828A838BF0FB
:0E0A25001256D8FD901F84E0FAC3EA9DE43318
:090A3300D003D0027003020A4155
:050A3C00901F84EDF0A5
:0D0A4100C002C003A812080808743526FF83
:0E0A4E0074000836FA0886039000A0E0FC8FC2
:0E0A5C00828A838BF0EC1251419000A074014D
:0C0A6A002504F0A812080808E512240674
:0E0A7600F9741926F77400083609F70809E626
:0D0A8400F7E5122406F886820886830886AE
:0D0A9100F07400125141A374001251419005
:0E0A9E001F85E0FAC3EA9DE433D003D0027056
:040AAC0003020AB582
:050AB000901F85EDF030
:0C0AB500ED75F016A42400FC740035F070
:0D0AC100FD7E01C002C003E5122406F8E628
:0E0ACE00C0E008E6C0E008E6C0E08C828D8340
:0E0ADC008EF012306D158115811581D003D07A
:0D0AEA0002D0E053E080E5E042A8D0E00239
:020AF7000AFDF6
:040AF9007AFF7BFF06
:0D0AFD00E51224F2F8860408860508860636
:0C0B0A00BC0009BD0006BE0003020B7613
:080B1600BA0105BB00028003D7
:030B1E00020B7651
:0D0B21008C828D838EF0A812080808E61261
:0C0B2E005141A308E6125141A308E61251
:0B0B3A005141901F86E0FCBC0003024C
:020B45000B762D
:0E0B4700901F7BE0FCA3E0FDA3E0FE741825E8
:0E0B550004FC74003505FD8C828D838EF01239
:0D0B630056D8FCE51224F5F8C3EC964003CB
:030B7000020B76FF
:030B7300121CEE63
:040B76008A828B8361
:060B7A00851281D0122259
:0C0B8000C012858112AA82AB837C00EABF
:060B8C004B7003020C7F18
:0E0B9200C002C003120CE8D003D002901F82F4
:0E0BA000E0FDA3E0FEE5022505FAE5033506BB
:0E0BAE00FB901F7BE0FDA3E0FEA3E0FF7419A7
:0E0BBC002505FD74003506FE8D828E838FF0B8
:0E0BCA00C002C00312356CD003D002901F7B16
:0E0BD800E0FDA3E0FEA3E0FF74192505FD7407
:0E0BE600003506FE8D828E838FF0EA1251419B
:0E0BF400A3EB125141901F82E0FDA3E0FEC36F
:090C0200EA9DEB9E4003020C4345
:0E0C0B00901F7BE0FAA3E0FBA3E0FD74192527
:0E0C190002FC74003503FB900087E0FEA3E0B0
:0E0C2700FFA3E0FAC004C003C0058E828F83D5
:0E0C35008AF0123250158115811581020C785B
:0E0C4300901F7BE0FAA3E0FBA3E0FD741925EF
:0E0C510002FC74003503FB900084E0FEA3E07B
:0E0C5F00FFA3E0FAC004C003C0058E828F839D
:0B0C6D008AF0123250158115811581AC
:070C7800120D0BAA828A0491
:060C7F00EC6003020C888A
:030C8500121CEE50
:060C8800851281D012224A
:0A0C8E00C012858112AA82AB839088
:0E0C98001F7BE0FCA3E0FDA3E0FEBC0009BD55
:080CA6000006BE0003020CCCA5
:0E0CAE00901F7EEAF0A3EBF0C2AF901F867499
:0E0CBC0001F0901F82E4F0A3F08A828B831275
:020CCA001C59B3
:060CCC00851281D0122206
:080CD200C012858112C2AF902F
:080CDA001F867400F0121CE3F8
:060CE200851281D01222F0
:0C0CE800C012858112C0E0C0A8C2AF900D
:0E0CF4001F87E02401F0D0E053E080E5E042ED
:030D0200A8D0E096
:060D0500851281D01222CC
:0C0D0B00C012858112E5812404F581A846
:0D0D170012087600C0E0C0A8C2AF901F8790
:0E0D2400E014901F87F0901F87E0FBBB0002D9
:020D320080033C
:030D3400020EC0EC
:0E0D370090008AE0FBA3E0FCBB0007BC0004B8
:040D450074018001B4
:010D4900E4C5
:050D4A00FBEBB4010009
:090D4F00E433FBEB7003020DAB71
:0C0D580090008C75F0011256D8FBA3121D
:0E0D640056D8FCA31256D8FD74022503FB746A
:0E0D7200003504FC8B828C838DF01256D8FB6A
:0E0D8000A31256D8FCA31256D8FD7408250302
:0D0D8E00FB74003504FC8B828C838DF01209
:0A0D9B0056D8FBA31256D8FCA31291
:060DA50056D8FD020DB15D
:060DAB007B007C007D00CE
:0E0DB1008B068C078D02BB0009BC0006BD003E
:040DBF0003020E8D90
:0E0DC30074272506FB74003507FC8A058B8219
:0E0DD1008C838DF0C002C006C00712356CD0B6
:0E0DDF0007D006D00274192506FB74003507F4
:0E0DED00FC8A058B828C838DF0C002C006C08C
:0E0DFB000712356CD007D006D00274192506F9
:0E0E0900FB74003507FC8A058B828C838DF00C
:0C0E17007400125141A37400125141A854
:0D0E230012080874182506F674003507083B
:0D0E3000F608A602A812080886820886832C
:0E0E3D000886F01256D8FE901F85E0FAC3EA30
:060E4B009E4003020E565A
:050E5100901F85EEF08A
:0D0E5600A812080886820886830886F0121C
:0C0E630056D8FAEA75F016A42400FA74C0
:0D0E6F000035F0FE7F01C003C004C0058AFD
:0E0E7C00828E838FF012306D158115811581E5
:030E8A00020D371F
:0E0E8D00901F88E0FAC374009A4003020EC062
:0E0E9B00901F88E0FAC374009A4003020EB85C
:090EA900120F26901F88E014903E
:060EB2001F88F0020E9BF8
:080EB800A812087601121CEEDD
:0D0EC000D0E053E080E5E042A8D0E0A812A9
:030ECD0008868212
:060ED000851281D0122200
:0C0ED600C012858112C0E0C0A8C2AF901D
:0E0EE2001F82E0FAA3E0FBD0E053E080E5E0E1
:080EF00042A8D0E08A828B8346
:060EF800851281D01222D8
:0C0EFE00C012858112C0E0C0A8C2AF90F5
:0E0F0A001F80E0FAA3E0FBD0E053E080E5E0BA
:080F180042A8D0E08A828B831D
:060F2000851281D01222AF
:0C0F2600C012858112E5812408F581903D
:090F32001F87E0FABA00028003F7
:030F3B000211ADF3
:0D0F3E00901F82E02401F0A3E03400F09049
:0E0F4B001F82E0FAA3E0FBBA0005BB000280A3
:010F59000394
:030F5A00020F99EA
:0D0F5D00900084E0FAA3E0FBA3E0FCA812E2
:0E0F6A0008A60208A60308A604900087E0FA75
:0E0F7800A3E0FBA3E0FC900084EAF0A3EBF002
:0D0F8600A3ECF0A81208900087E6F008A385
:060F9300E6F008A3E6F001
:0E0F9900900084E0FAA3E0FBA3E0FC8A828BC8
:0E0FA700838CF01256D8FAA31256D8FBBA006B
:080FB50007BB00047401800178
:010FBD00E44F
:050FBE00FAEAB4010095
:090FC300E433FAEA700302103471
:0E0FCC00900084E0FAA3E0FBA3E0FC74022591
:0E0FDA0002FA74003503FB8A828B838CF012BE
:0A0FE80056D8FAA31256D8FBA31244
:0E0FF20056D8FC74022502FA74003503FB8AFF
:0E100000828B838CF01256D8FAA31256D8FBBE
:0E100E00A31256D8FC74082502FA74003503AC
:0D101C00FB8A828B838CF01256D8FAA31247
:0910290056D8FBA31256D8FC02B4
:02103200103A72
:061034007A007B007C0045
:0E103A008A058B068C07BA0009BB0006BC00B5
:04104800030211B4DA
:0E104C0074192505FA74003506FB8F04C005E3
:0D105A00C006C0078A828B838CF0E512244B
:0D10670004F81256D8F6A31256D808F690D9
:0D1074001F82E0FFA3E0FDE5122404F8C395
:0E108100EF96ED0896E433D007D006D0056058
:04108F00030211B493
:0E1093008A828B838CF0C002C003C004C005AB
:0E10A100C006C00712356CD007D006D005D0AF
:0D10AF0004D003D002E5122406F8742725B2
:0E10BC0005F67400350608F608A607C005C044
:0D10CA0006C007E5122406F8740B26FD741D
:0E10D700000836FE0886078D828E838FF01289
:0A10E50056D8FDA31256D8FEA31240
:0E10EF0056D8FFED4E4FD007D006D005700347
:0310FD00021128B5
:0D110000E5122406F886820886830886F032
:0D110D00C002C003C004C005C006C0071228
:0E111A00356CD007D006D005D004D003D0022B
:0E1128008A828B838CF07400125141A37400F4
:0E11360012514174182505FD74003506FE8D1A
:0D114400828E838FF0E5122406F81256D833
:0D115100F6C002C003C004901F85E0FAE55F
:0D115E00122406F8C3EA96E433D004D0034F
:07116B00D002700302117CA9
:0A117200E5122406F8901F85E6F050
:0E117C008D828E838FF01256D8FDED75F01621
:0C118A00A42400FD740035F0FE7F01C0BD
:0E11960002C003C0048D828E838FF012306D74
:0911A400158115811581020F99D6
:0711AD00901F88E02401F00F
:0611B400851281D0122219
:0611BA00C01285811290B5
:0A11C0001F87E0FABA00030211CD08
:0311CA000213818C
:0D11CD00901F85E0FAEA75F016A42400F5E5
:0D11DA0082740035F0F583E0FAA3E0FBBA63
:0711E7000005BB00028003BC
:0311EE000211FDEE
:0A11F100901F85E014901F85F002A6
:0211FB0011CD14
:0D11FD00901F85E0FAEA75F016A42400FAB0
:0D120A00740035F0FB74052502FA74003500
:0D12170003FB901F85E0FCEC75F016A4248D
:0C12240000FC740035F0FD74052504F595
:0E1230008274003505F583E0FCA3E0FDA3E029
:0E123E00FE74022504FC74003505FD8C828DC3
:0E124C00838EF01256D8FCA31256D8FDA312C2
:0E125A0056D8FE8A828B83ECF0A3EDF0A3EE53
:0D126800F0901F85E0FAEA75F016A424004E
:0D127500FA740035F0FB74052502F5827453
:0E128200003503F583E0FAA3E0FBA3E0FC9047
:0D1290001F85E0FDED75F016A42400FD742F
:0D129D000035F0FE74022505F58274003561
:0E12AA0006F583E0FDA3E0FEA3E0FFEAB50534
:0B12B8000AEBB50606ECB50702800348
:0312C300021332E1
:0D12C600901F85E0FAEA75F016A42400FAE6
:0D12D300740035F0FB74052502FA74003537
:0D12E00003FB901F85E0FCEC75F016A424C4
:0C12ED0000FC740035F0FD74052504F5CC
:0E12F9008274003505F583E0FCA3E0FDA3E060
:0E130700FE74022504FC74003505FD8C828DF9
:0E131500838EF01256D8FCA31256D8FDA312F8
:0E13230056D8FE8A828B83ECF0A3EDF0A3EE89
:01133100F0CB
:0D133200901F85E0FAEA75F016A42400FA79
:0D133F00740035F0FB74052502F582740082
:0E134C003503F583E0FAA3E0FBA3E0FC740890
:0E135A002502FA74003503FB8A828B838CF027
:0B1368001256D8FAA31256D8FBA312AD
:0E13730056D8FC901F7BEAF0A3EBF0A3ECF041
:06138100851281D012224A
:0C138700C012858112AA82AB83ACF090EA
:0E1393001F7BE0FDA3E0FEA3E0FF742725050D
:0E13A100FD74003506FEC005C006C0078A8236
:0E13AF008B838CF012325015811581158190C0
:0D13BD001F82E0FAA3E0FBE51224FCF8E635
:0E13CA002502FA08E63503FB901F7BE0FCA32A
:0E13D800E0FDA3E0FE74192504FC7400350549
:0E13E600FD8C828D838EF0C002C00312356C28
:0E13F400D003D002901F7BE0FCA3E0FDA3E03D
:0E140200FE74192504FC74003505FD8C828DE6
:0D141000838EF0EA125141A3EB125141907E
:0E141D001F82E0FCA3E0FDC3EA9CEB9D4003B0
:03142B0002146642
:0E142E00901F7BE0FAA3E0FBA3E0FC741925FD
:0E143C0002FA74003503FB900087E0FDA3E088
:0E144A00FEA3E0FFC002C003C0048D828E83AB
:0E1458008FF012325015811581158102149B00
:0E146600901F7BE0FAA3E0FBA3E0FC741925C5
:0E14740002FA74003503FB900084E0FDA3E053
:0E148200FEA3E0FFC002C003C0048D828E8373
:0B1490008FF01232501581158115817C
:06149B00851281D012222F
:0C14A100C012858112058105810581AA19
:0E14AD0082AB83ACF08A828B838CF01256D80F
:0E14BB00FDA31256D8FEBD0007BE000474014A
:0214C9008001A0
:0114CB00E43C
:0514CC00FDEDB401007C
:0914D100E433FDED700302153750
:0E14DA0074022502FA74003503FB8A828B83AC
:0D14E8008CF01256D8FAA31256D8FBA312AE
:0E14F50056D8FC74022502FA74003503FB8AF7
:0E150300828B838CF01256D8FAA31256D8FBB6
:0E151100A31256D8FC74082502FA74003503A4
:0D151F00FB8A828B838CF01256D8FAA3123F
:09152C0056D8FBA31256D8FC02AC
:02153500153D62
:061537007A007B007C003D
:0C153D00A81208A60208A60308A604A82D
:0D1549001208742726FD74000836FE08867F
:0E155600078D828E838FF012356C901F87E018
:06156400FDBD0002800342
:03156A000215F770
:0D156D00A81208741926FD74000836FE0847
:0D157A0086078D828E838FF012356CA812CB
:0E15870008741926FD74000836FE0886078DCC
:0E159500828E838FF07400125141A3740012F5
:0D15A3005141A81208741826FA7400083689
:0E15B000FB0886048A828B838CF01256D8FAD0
:0D15BE00901F85E0FBC3EB9A40030215D09F
:0515CB00901F85EAF00D
:0C15D000EA75F016A42400FA740035F04F
:0E15DC00FB7C01C005C006C0078A828B838C91
:0D15EA00F012306D15811581158102161E5D
:0D15F700A81208742726FA74000836FB08B5
:0D1604008604C002C003C00475828A75838D
:0D1611000075F00112306D158115811581F5
:0D161E00A81208741826FA74000836FB089C
:0D162B0086048A828B838CF01256D8FA90C8
:0E1638001F7BE0FBA3E0FCA3E0FD741825037C
:0D164600FB74003504FC8B828C838DF01248
:0B16530056D8FBC3EB9A40030216645C
:06165E007582010216670F
:031664007582008C
:06166700851281D0122261
:05166D00C0128581128E
:0E16720012192D901F7EE0FAA3E0FBBA0005CE
:05168000BB0002800325
:03168500021672D8
:06168800121CEE021672B6
:06168E00851281D012223A
:0C169400C012858112C082C083C0F0A883
:0D16A0001208740626FD74000836FE088648
:0D16AD00078D828E838FF0E51224FCF8E695
:0A16BA00125141A308E6125141E568
:0D16C4001224F9F886820886830886F01249
:0E16D10055F8AD82AE83C3ED9410EE94004048
:0416DF0003021725C6
:0D16E300C0E0C0A8C2AFA81208740826FD20
:0D16F00074000836FE088607E51224F9F89C
:0E16FD00E6C0E008E6C0E008E6C0E08D828EA0
:0E170B00838FF012506C158115811581D0E08E
:0C17190053E080E5E042A8D0E002178D0C
:0D172500C0E0C0A8C2AFA81208740826FDDD
:0E17320074000836FE088607C005C006C00712
:0D1740007410C0E07400C0E0E51224F9F858
:0E174D00E6C0E008E6C0E008E6C0E08D828E4F
:0E175B00838FF0125555E58124FBF581D007F0
:0E176900D006D005D0E053E080E5E042A8D0E5
:0E177700E0740F2505FD74003506FE8D828E90
:08178500838FF0740012514142
:08178D00E51224F8F8B604008F
:0517950050030217A142
:07179A00E51224F8F87603C4
:0D17A100A81208741826FD74000836FE0812
:0D17AE0086078D828E838FF0E51224F8F8F7
:0D17BB00E6125141A81208741926FD7400B1
:0D17C8000836FE0886078D828E838FF01292
:0D17D500303BA81208742726FD740008366A
:0E17E200FE0886078D828E838FF012303BA8A2
:0D17F0001208741926FD74000836FE0886E4
:0E17FD000774082505FD74003506FE8D828EEA
:0D180B00838FF0A81208E6125141A308E6F1
:0A181800125141A308E6125141A845
:0D1822001208742726FD74000836FE0886A3
:0D182F0007E51224F8F886027B008D828EFA
:0E183C00838FF0EA125141A3EB125141740860
:0E184A002505FD74003506FE8D828E838FF01D
:0B185800A81208E6125141A308E61296
:081863005141A308E6125141B6
:06186B00851281D012225B
:07187100C0128581127A000C
:03187800BA0400AF
:05187B0040030218A06B
:0C188000EA75F016A42400FB740035F09B
:0E188C00FC7D018B828C838DF0C002122EE158
:06189A00D0020A021878DA
:0A18A00075825875830075F001127F
:0718AA002EE175826E7583CB
:0918B1000075F001122EE17582B0
:0818BA008A75830075F001122C
:0618C2002EE19000847489
:0B18C80058F0A37400F0A37401F0902E
:0718D3000087746EF0A3749E
:0D18DA0000F0A37401F07400C0E07400C0C1
:0E18E700E07400C0E07400C0E07400C0E07463
:0E18F50000C0E07400C0E074BAC0E07400C02F
:0C190300E07428C0E0741AC0E07402C058
:08190F00E075826D758316126C
:0E191700087BAA82AB83E58124F4F5818A82E5
:021925008B83B2
:06192700851281D012229E
:05192D00C012858112CB
:06193200851281D0122293
:0C193800C012858112C082C083058105A9
:0E194400810581758236758300123749AC82A9
:0D195200AD83AEF0A812080808A60408A690
:0D195F000508A606A812080808B6000B0827
:0A196C00B6000708B60003021A15C2
:0D197600A812080808740326FF7400083644
:0D198300FA088603A812088682088683C031
:0E19900002C003C007123749AC82AD83AEF02F
:0E199E00D007D003D0028F828A838BF0EC1228
:0A19AC005141A3ED125141A3EE12C8
:0D19B6005141BC0008BD0005BE00028003C9
:0319C3000219E422
:0D19C600A81208080886820886830886F0AB
:0D19D300123863A812080808E4F608F608A8
:0419E000F6021A15DC
:0E19E4008F828A838BF01256D8FFA31256D83A
:0D19F200FAA31256D8FBA81208E6C0E008C0
:0E19FF00E6C0E074A5C0E08F828A838BF012F0
:081A0D0054AE1581158115810D
:0D1A1500A81208080886820886830886F05B
:061A2200851281D01222A2
:051A280049444C45009B
:035926000000007E
:0259290000007C
:02592B0000007A
:02592D00000078
:01592F000077
:015930000076
:015931000075
:015932000074
:015933000073
:0C1A2D00C012858112C082C083C0F00589
:0C1A39008105810581A81208E512240433
:0D1A4500F9E6F70809E6F70809E6F7A81228
:0D1A520008740126F674000836F6E512242B
:0E1A5F00FCF886050886067F007A008D03A835
:0C1A6D00120886820886830886F0EB12BF
:0E1A79005141A31818A68208A6838E058F0679
:0D1A87008A077A008D03A81208868208865F
:0E1A9400830886F0EB125141A31818A68208B1
:0D1AA200A683A8120886820886830886F0B5
:0E1AAF0074AA125141A31818A68208A683A893
:0D1ABD00120886820886830886F074801265
:0D1ACA005141A31818A68208A683E5122436
:0E1AD700F9F886050886060886077A008D0352
:0D1AE500A8120886820886830886F0EB129E
:0E1AF2005141A31818A68208A6838E058F0600
:0D1B00008A077A008D03A8120886820886E5
:0E1B0D00830886F0EB125141A31818A6820837
:0D1B1B00A6838E058F068A077A00A812089F
:0E1B280086820886830886F0ED125141A318CC
:0D1B360018A68208A683A8120886820886D9
:0E1B4300830886F07402125141A31818A6827E
:0D1B510008A683A8120886820886830886ED
:0E1B5E00F07403125141A31818A68208A68342
:0D1B6C00A8120886820886830886F074049B
:0D1B7900125141A31818A68208A683A812D5
:0E1B86000886820886830886F0740512514195
:0D1B9400A31818A68208A683A8120886824E
:0E1BA1000886830886F07406125141A31818B6
:0D1BAF00A68208A683A812088682088683F5
:0E1BBC000886F07407125141A31818A682087B
:0D1BCA00A683A8120886820886830886F08C
:0E1BD7007400125141A31818A68208A683A814
:0D1BE500120886820886830886F0740112BB
:0D1BF2005141A31818A68208A683A8120866
:0E1BFF0086820886830886F07400125141A386
:0D1C0D001818A68208A683A812088682086F
:0D1C1A0086830886F074BB125141A81208A1
:0D1C2700E5122404F9E6C397FA08E60997D0
:0D1C3400FBE5122404F886820886830886EA
:0D1C4100F0EA125141E5122404F8868208F1
:051C4E0086830886F00A
:061C5300851281D012226F
:061C5900C0128581121289
:0E1C5F001EC6758400901F7BE0FAA3E0FBA375
:0D1C6D00E0FC8A828B838CF01256D8F509BA
:071C7A00A31256D8F50A750C
:061C81000B0D85098285B0
:051C87000A83E0F508EE
:071C8C000509E4B50902059A
:011C93000A46
:051C9400050BA80B8503
:0A1C99000982850A83E0FAA602150D
:061CA30008E508600302E1
:021CA9001C8C91
:0C1CAB00850B81D012D0D0D001D000D029
:0E1CB70007D006D005D004D003D002D0F0D064
:0D1CC50083D082D0E020E705C2AF021CD41E
:021CD200D2AF8F
:091CD400D0E03275820175830035
:061CDD00851281D01222E5
:051CE300C01285811212
:061CE800851281D01222DA
:0E1CEE00C0E0C0A8C2AFC082C083C0F0C00278
:0E1CFC00C003C004C005C006C007C000C00180
:0D1D0A00C0D075D000C012901F7BE0FAA37E
:0E1D1700E0FBA3E0FC8A828B838CF01256D88E
:071D2500F509A31256D8F5E1
:091D2C000A750B0EE58124F3F5A4
:051D350008850982850C
:051D3A000A83E508F03A
:071D3F00E5087003021D61BD
:071D46000509E4B5090205DF
:011D4D000A8B
:071D4E00850982850A83A8C4
:081D55000B8602EAF0050B15F4
:041D5D0008021D3F1C
:0E1D61001211BA901F7BE0FAA3E0FBA3E0FC96
:0D1D6F008A828B838CF01256D8F509A312DE
:051D7C0056D8F50A75C0
:061D81000B0D85098285AF
:051D87000A83E0F508ED
:071D8C000509E4B509020599
:011D93000A45
:051D9400050BA80B8502
:0A1D99000982850A83E0FAA602150C
:061DA30008E508600302E0
:021DA9001D8C8F
:0C1DAB00850B81D012D0D0D001D000D028
:0E1DB70007D006D005D004D003D002D0F0D063
:0D1DC50083D082D0E020E705C2AF021DD41C
:021DD200D2AF8E
:031DD400D0E0322A
:0E1DD700C0E0C0A8C2AFC082C083C0F0C0028E
:0E1DE500C003C004C005C006C007C000C00196
:0D1DF300C0D075D000C012901F7BE0FAA395
:0E1E0000E0FBA3E0FC8A828B838CF01256D8A4
:071E0E00F509A31256D8F5F7
:091E15000A750B0EE58124F3F5BA
:051E1E00088509828522
:051E23000A83E508F050
:071E2800E5087003021E4AE9
:071E2F000509E4B5090205F5
:011E36000AA1
:071E3700850982850A83A8DA
:081E3E000B8602EAF0050B150A
:041E460008021E2848
:0A1E4A00120F261211BA53C87F9040
:0E1E54001F7BE0FAA3E0FBA3E0FC8A828B83F5
:091E62008CF01256D8F509A31208
:051E6B0056D8F50A75D0
:061E70000B0D85098285BF
:051E76000A83E0F508FD
:071E7B000509E4B5090205A9
:011E82000A55
:051E8300050BA80B8512
:0A1E88000982850A83E0FAA602151C
:061E920008E508600302F0
:021E98001E7BAF
:0C1E9A00850B81D012D0D0D001D000D038
:0E1EA60007D006D005D004D003D002D0F0D073
:0D1EB40083D082D0E020E705C2AF021EC33C
:021EC100D2AF9E
:031EC300D0E0323A
:0C1EC600C012858112AA8475840075C9C1
:0E1ED2000075CA1975CBE075CC1975CDE043CB
:071EE000A82075C8048A84E4
:061EE700851281D01222D9
:0C1EED00C012858112C082E5812409F535
:0D1EF90081A81208C3740096400302215F07
:0E1F060075823D758300123749AB82AC83AD06
:0D1F1400F0A8120808A60308A60408A605F8
:0D1F2100A8120808B6000B08B6000708B6A5
:051F2E00000302215F29
:0C1F3300A81208A91219191986F0E7A4D9
:0E1F3F00FEAFF074012506FA74003507FB8A28
:0E1F4D00828B83C006C007123749AA82AB837D
:0D1F5B00ACF0D007D006A812080886820856
:0E1F680086830886F0EA125141A3EB12514124
:0E1F7600A3EC125141BA0009BB0006BC0003E7
:031F8400022150E7
:0C1F8700A8120808E5122405F9740326CE
:0D1F9300F77400083609F70809E6F7A812F0
:0E1FA000080886820886830886F01256D8FD4F
:0E1FAE00A31256D8FAA31256D8FBE506250555
:0D1FBC00FEE5073502FF8B04E5122405F851
:0E1FC90086820886830886F0EE125141A3EF4F
:091FD700125141A3EC125141A882
:0D1FE000120808743826FC74000836FE084C
:0E1FED0086078C828E838FF07400125141A8FB
:0D1FFB00120808740626FC74000836FE0863
:0E20080086078C828E838FF0ED125141A3EA81
:09201600125141A3EB125141A843
:0C201F00120808E5122405F9740926F7E0
:0D202B007400083609F70809E6F7A8120846
:0D20380086047E00E5122408F8EC24FFF673
:0D204500EE34FF08F6A81218181886077C64
:0D20520000C002C003C005C007C004E512B5
:0E205F002408F8868208868312519FAC82AE58
:0E206D008315811581D005D003D002E504252E
:0D207B0005FDE5063502FAE5122405F8869C
:0E208800820886830886F0ED125141A3EA1209
:082096005141A3EB125141A8D6
:0D209E00120808743926FA74000836FB0891
:0D20AB0086048A828B838CF0A81208E6124E
:0D20B8005141A8120808743A26FA74000875
:0D20C50036FB0886048A828B838CF0A812FB
:0D20D200181818E6125141A8120808743BB6
:0E20DF0026FA74000836FB0886048A828B837A
:0D20ED008CF074FF125141A8120808743CD9
:0E20FA0026FA74000836FB0886048A828B835F
:0D2108008CF074FF125141A8120808740CED
:0E21150026FA74000836FB0886048A828B8343
:0D2123008CF0122EE1A8120808742226FA92
:0E21300074000836FB0886048A828B838CF0CC
:0D213E00122EE1A812080886820886830888
:05214B0086F00221688E
:0D215000A812080886820886830886F0120F
:02215D003863E5
:09215F0075820075830075F00023
:06216800851281D0122255
:0C216E00C012858112C082C083C0F0E561
:0E217A0081240CF581120CE8C0E0C0A8C2AFB1
:0D218800A81208743B26FD74000836FE08FE
:0E21950086078D828E838FF01256D8FA0A8D3F
:0D21A300828E838FF0EA125141A812087459
:0E21B0003C26FA74000836FB0886048A828BEF
:0E21BE00838CF01256D8FD0D8A828B838CF034
:0E21CC00ED125141D0E053E080E5E042A8D092
:0D21DA00E0A8120886820886830886F012AD
:0921E7002E89E58270030222AD8D
:0D21F000E51224F9F8E6084670030222AD5E
:0D21FD00A81208740C26FA74000836FB08BE
:0D220A008604E51224F9F8E6C0E008E6C0FD
:0E221700E08A828B838CF0121387158115816B
:0D222500C0E0C0A8C2AFA8120886820886DB
:0E223200830886F0122D07120D0BE582600363
:0322400002224631
:03224300121CEE7C
:0D224600120CE8C0E0C0A8C2AFA8120874D6
:0E2253003B26FA74000836FB0886048A828B4C
:0E226100838CF01256D8FD0D8A828B838CF090
:0D226F00ED125141A81208743C26FA7400CB
:0D227C000836FB0886048A828B838CF012E2
:0E22890056D8FD0D8A828B838CF0ED125141E8
:0E229700D0E053E080E5E042A8D0E0D0E05374
:0822A500E080E5E042A8D0E072
:0D22AD00C0E0C0A8C2AFA81208743826FA1D
:0E22BA0074000836FB0886048A828B838CF041
:0A22C800E5122404F81256D8F6A817
:0D22D2001208743926FE74000836FF0886D5
:0D22DF00058E828F838DF01256D8FEE51219
:0B22EC002404F8C3E69E400302248A8D
:0C22F700A81208E5122405F9743A26F735
:0D2303007400083609F70809E6F7E5122412
:0E23100005F886820886830886F01256D8FDEE
:0C231E00E512240BF8A605087600A812B2
:0D232A0008E5122408F9740626F77400086F
:0D2337003609F70809E6F7E5122408F886D4
:0D234400820886830886F01256D8FFA31287
:0E23510056D8FDA31256D8FEC002C003C00429
:0D235F00E512240BF8E6C0E008E6C0E0E55A
:0D236C001224FBF8E6C0E008E6C0E008E639
:0E237900C0E08F828D838EF0125438E58124EF
:0E238700FBF581D004D003D0028A828B838CB8
:0E239500F01256D8FD0D8A828B838CF0ED126B
:0D23A3005141E5122408F88682088683085F
:0D23B00086F01256D8FAA31256D8FBA312DD
:0D23BD0056D8FCE5122405F88682088683B8
:0E23CA000886F01256D8FDE5052502FA7400CB
:0D23D8003503FBE5122408F8868208868391
:0E23E5000886F0EA125141A3EB125141A3EC1D
:0D23F300125141A81208740326FD74000861
:0E24000036FE0886078D828E838FF01256D826
:0E240E00FDA31256D8FEA31256D8FFC3EA9DB6
:0E241C00EB9EEC64808FF063F08095F050032F
:03242A0002246128
:0C242D00A8120886820886830886F01238
:0A24390056D8FAA31256D8FBA312DE
:0D24430056D8FCE5122408F886820886832E
:0E2450000886F0EA125141A3EB125141A3ECB1
:03245E00125141D7
:0D2461007A01A81208743C26FB74000836AE
:0E246E00FC0886058B828C838DF01256D8FEFA
:0E247C000E8B828C838DF0EE12514102248C67
:02248A007AFDD9
:0D248C00D0E053E080E5E042A8D0E0A812C7
:0E2499000886820886830886F0C002122D078E
:0924A700E582D00270030224C496
:0E24B000C002120D0BE582D00260030224CBA5
:0624BE00121CEE0224CB0B
:0724C400C002120D0BD00253
:0224CB008A8203
:0624CD00851281D01222ED
:0C24D300C012858112C082C083C0F0E5F9
:0D24DF0081240CF581A81208743826FD74C4
:0E24EC00000836FE0886078D828E838FF0E58D
:0924FA00122404F81256D8F6A8C9
:0D2503001208743926FB74000836FC0886A7
:0D251000028B828C838AF01256D8FBE512F4
:0B251D002404F8C3E69B4003022707DC
:0C252800A81208E5122405F9743A26F701
:0D2534007400083609F70809E6F7E51224DF
:0E25410005F886820886830886F01256D8FABE
:0C254F00E512240BF8A602087600A81282
:0D255B0008E5122408F9740626F77400083C
:0D2568003609F70809E6F7E5122408F886A1
:0D257500820886830886F01256D8FCA31257
:0E25820056D8FAA31256D8FBC005C006C007F3
:0D259000E512240BF8E6C0E008E6C0E0E527
:0D259D001224FBF8E6C0E008E6C0E008E606
:0E25AA00C0E08C828A838BF0125438E58124C5
:0E25B800FBF581D007D006D0058D828E838F73
:0E25C600F01256D8FA0A8D828E838FF0EA1238
:0D25D4005141E5122408F88682088683082C
:0D25E10086F01256D8FAA31256D8FBA312AA
:0D25EE0056D8FCE5122405F8868208868385
:0E25FB000886F01256D8FDE5052502FA740098
:0D2609003503FBE5122408F886820886835D
:0E2616000886F0EA125141A3EB125141A3ECE9
:0D262400125141A81208740326FD7400082D
:0E26310036FE0886078D828E838FF01256D8F3
:0E263F00FDA31256D8FEA31256D8FFC3EA9D83
:0E264D00EB9EEC64808FF063F08095F05003FC
:03265B00022692C2
:0C265E00A8120886820886830886F01205
:0A266A0056D8FAA31256D8FBA312AB
:0D26740056D8FCE5122408F88682088683FB
:0E2681000886F0EA125141A3EB125141A3EC7E
:03268F00125141A4
:0D269200A81208743C26FA74000836FB08F4
:0E269F0086048A828B838CF01256D8FDBDFF14
:0326AD00028003A5
:0326B0000226FC03
:0B26B300E51224FAF8E6600302270796
:0D26BE00A81208742226FA74000836FB08E2
:0E26CB0086048A828B838CF01256D8FEA312EE
:0C26D90056D8FFBE0006BF000302270712
:0E26E5008A828B838CF01214A1AE82BE000399
:0326F300022707B4
:0626F60075820102270EAF
:0B26FC000D8A828B838CF0ED1251419F
:07270700E51224FAF88682B6
:06270E00851281D01222A9
:0C271400C012858112C082C083C0F0E5B5
:0E27200081240BF581120CE8C0E0C0A8C2AF06
:0D272E00A81208743B26FD74000836FE0852
:0E273B0086078D828E838FF01256D8FA0A8D93
:0D274900828E838FF0EA125141A8120874AD
:0E2756003C26FA74000836FB0886048A828B43
:0E276400838CF01256D8FD0D8A828B838CF088
:0E277200ED125141D0E053E080E5E042A8D0E6
:0D278000E0A8120886820886830886F01201
:09278D002E48E582700302285376
:0D279600E51224F9F8E60846700302285306
:0D27A300A81208742226FA74000836FB08FC
:0D27B0008604E51224F9F8E6C0E008E6C052
:0E27BD00E08A828B838CF012138715811581C0
:0D27CB00C0E0C0A8C2AFA812088682088630
:0E27D800830886F0122D07120D0BE5826003B8
:0327E6000227ECDB
:0327E900121CEED1
:0D27EC00120CE8C0E0C0A8C2AFA81208742B
:0E27F9003B26FA74000836FB0886048A828BA1
:0E280700838CF01256D8FD0D8A828B838CF0E4
:0D281500ED125141A81208743C26FA74001F
:0D2822000836FB0886048A828B838CF01236
:0E282F0056D8FD0D8A828B838CF0ED1251413C
:0E283D00D0E053E080E5E042A8D0E0D0E053C8
:08284B00E080E5E042A8D0E0C6
:0D285300C0E0C0A8C2AFA81208743826FA71
:0E28600074000836FB0886048A828B838CF095
:0A286E00E512240BF81256D8F6E527
:0D28780012240BF8C37400964003022A02DC
:0C288500A81208E5122404F9740926F7D3
:0D2891007400083609F70809E6F7E512247F
:0D289E0004F886820886830886F0E512247F
:0E28AB0007F91256D8F7A31256D809F7A31250
:0D28B90056D809F7A81208743A26FD7400DD
:0D28C6000836FE0886078D828E838FF0E5B0
:0928D30012240AF81256D8F6E5A9
:0C28DC00122407F8E512240AF9E726F69A
:0D28E80074000836F6E5122404F886820814
:0C28F50086830886F0E5122407F9E7123C
:0C2901005141A309E7125141A309E7125C
:0D290D005141A81208740326FD740008361D
:0E291A00FE0886078D828E838FF01256D8FD40
:0B292800A31256D8FEA31256D8FFE5FC
:0D293300122407F8C3E69D08E69E08E6643E
:0D294000808FF063F08095F0E433600302B7
:02294D002983DC
:0C294F00A8120886820886830886F01211
:0A295B0056D8FEA31256D8FFA312AF
:0D29650056D8FDE5122404F886820886830A
:0E2972000886F0EE125141A3EF125141A3ED81
:03298000125141B0
:0D298300E512240BF8E614FD8A828B838C8C
:0D299000F0ED125141E512240AF886027B99
:0D299D0000E5122404F8868208868308866F
:0C29AA00F01256D8FCA31256D8FDA31260
:0E29B60056D8FEC002C003C004C005C006E52E
:0D29C4001224FBF886820886830886F01234
:0D29D1005438E58124FBF581A81208743B01
:0E29DE0026FA74000836FB0886048A828B8372
:0E29EC008CF01256D8FD0D8A828B838CF0ED94
:0829FA001251417A01022A0486
:022A02007A0058
:0D2A0400D0E053E080E5E042A8D0E0A81249
:0E2A11000886820886830886F0C002122D0710
:092A1F00E582D0027003022A3C9A
:0E2A2800C002120D0BE582D0026003022A43A9
:062A3600121CEE022A430F
:072A3C00C002120D0BD002D5
:022A43008A8285
:062A4500851281D012226F
:0C2A4B00C012858112C082C083C0F0E57B
:0D2A570081240BF581A81208743826FD7447
:0E2A6400000836FE0886078D828E838FF0E50F
:092A7200122404F81256D8F6E50E
:0D2A7B00122404F8C37400964003022C825C
:0C2A8800C005C006C007A81208E5122413
:0E2A940005F9740926F77400083609F70809D9
:0D2AA200E6F7E5122405F886820886830811
:0D2AAF0086F01256D8FDA31256D8FEA312D1
:0D2ABC0056D8FFA81208743A26FA740008D4
:0D2AC90036FB0886048A828B838CF0E512B0
:0D2AD6002408F81256D8F6E5122408F8E698
:0D2AE3002505FD74003506FEE5122405F8FA
:0E2AF00086820886830886F0ED125141A3EE1F
:092AFE00125141A3EF125141A84D
:0D2B07001208740326FA74000836FB0886D5
:0D2B1400048A828B838CF01256D8FAA3122B
:0E2B210056D8FBA31256D8FCC3ED9AEE9BEFDC
:0E2B2F0064808CF063F08095F0E433D007D022
:082B3D0006D0056003022B79AC
:0C2B4500A8120886820886830886F01219
:0A2B510056D8FAA31256D8FBA312BF
:0D2B5B0056D8FCE5122405F8868208868312
:0E2B68000886F0EA125141A3EB125141A3EC92
:032B7600125141B8
:0D2B7900E5122404F8E614FA8D828E838F95
:0D2B8600F0EA125141E5122408F886027BA6
:0D2B930000E5122405F88682088683088676
:0C2BA000F01256D8FCA31256D8FDA31268
:0E2BAC0056D8FEC002C003C004C005C006E536
:0D2BBA001224FBF886820886830886F0123C
:0D2BC7005438E58124FBF581A81208743B09
:0E2BD40026FA74000836FB0886048A828B837A
:0B2BE2008CF01256D8FDBDFF028003EE
:032BED00022C7245
:0D2BF000E51224F8F8860208860308860422
:0E2BFD008A828B838CF01256D86003022C7DE6
:0C2C0B00A81208E5122409F9740C26F741
:0D2C17007400083609F70809E6F7E51224F5
:0E2C240009F886820886830886F01256D8FECC
:0E2C3200A31256D8FFBE0006BF0003022C7D81
:0D2C4000E5122409F886820886830886F0D4
:0E2C4D00C002C003C0041214A1AE82D004D095
:092C5B0003D002BE0003022C7D2F
:0E2C64008A828B838CF07401125141022C7D08
:0B2C72000D8A828B838CF0ED12514123
:052C7D007A01022C8425
:022C82007A00D6
:022C84008A8242
:062C8600851281D012222C
:0C2C8C00C012858112AA82AB83ACF0C09C
:0E2C9800E0C0A8C2AF74382502FA74003503FC
:0E2CA600FB8A828B838CF01256D8FAD0E05352
:0A2CB400E080E5E042A8D0E08A824B
:062CBE00851281D01222F4
:0C2CC400C012858112AA82AB83ACF08A9A
:0E2CD000828B838CF01256D8FDA31256D8FECC
:0E2CDE00A31256D8FF8D828E838FF0C002C0E5
:0E2CEC0003C004123863D004D003D0028A82E1
:072CFA008B838CF01238639C
:062D0100851281D01222B0
:0C2D0700C012858112C082C083C0F0059C
:0D2D130081E5122404F87600C0E0C0A8C2DB
:0D2D2000AFA81208743C26FE74000836FFB0
:0E2D2D000886058E828F838DF01256D8FA1A12
:0E2D3B008E828F838DF0EA125141C374FF64C3
:0D2D4900808AF063F08095F04003022DA019
:0D2D56008E828F838DF074FF125141A81200
:0E2D630008742226FA74000836FB0886048ADB
:0E2D7100828B838CF01256D8FDA31256D8FE2A
:092D7F00BD0006BE0003022DA0F8
:0E2D88008A828B838CF01214A1AA82BA0003F7
:032D9600022DA06B
:072D9900E5122404F87601A5
:0E2DA000D0E053E080E5E042A8D0E0C0E0C003
:0D2DAE00A8C2AFA81208743B26FA740008F2
:0E2DBB0036FB0886048A828B838CF01256D871
:0E2DC900FD1D8A828B838CF0ED125141C37484
:0D2DD700FF64808DF063F08095F0400302F2
:022DE4002E308F
:0D2DE6008A828B838CF074FF125141A81279
:0E2DF30008740C26FA74000836FB0886048A61
:0E2E0100828B838CF01256D8FDA31256D8FE99
:092E0F00BD0006BE0003022E30D6
:0E2E18008A828B838CF01214A1AA82BA000366
:032E2600022E3049
:072E2900E5122404F8760114
:0D2E3000D0E053E080E5E042A8D0E0E512DC
:052E3D002404F8868268
:062E4200851281D012226E
:0C2E4800C012858112AA82AB83ACF0C0DE
:0E2E5400E0C0A8C2AF74382502FA740035033E
:0E2E6200FB8A828B838CF01256D8FABA0004D9
:042E70007401800168
:012E7400E479
:0E2E7500FAD0E053E080E5E042A8D0E08A8287
:062E8300851281D012222D
:0C2E8900C012858112AA82AB83ACF0C09D
:0E2E9500E0C0A8C2AF74382502FD74003503FA
:0E2EA300FE8C078D828E838FF01256D8FD7440
:0E2EB100392502FA74003503FB8A828B838C6C
:0D2EBF00F01256D8FAEDB50204740180013E
:012ECC00E421
:0E2ECD00FDD0E053E080E5E042A8D0E08D8229
:062EDB00851281D01222D5
:0C2EE100C012858112C082C083C0F0E5E1
:0D2EED00812409F581A81208740226FA74E8
:0C2EFA00000836FB088604A81208E51248
:0E2F06002404F9740826F77400083609F70849
:0D2F140009E6F78A828B838CF0E512240415
:0E2F2100F8E6125141A308E6125141A308E65A
:072F2F00125141A81208E550
:0D2F3600122407F9740526F7740008360907
:0E2F4300F70809E6F78A828B838CF01256D8C5
:0C2F5100FEA31256D8FFA31256D8FBE5D1
:0D2F5D00122407F886820886830886F0EEAD
:0B2F6A00125141A3EF125141A3EB12E2
:0D2F75005141E5122404F886820886830885
:0E2F820086F074FF125141A374FF125141E515
:0D2F9000122404F8740226FB74000836FCBD
:0D2F9D000886058B828C838DF0E5122404DC
:0E2FAA00F8E6125141A308E6125141A308E6D1
:0D2FB800125141E5122404F8740526FB7443
:0E2FC500000836FC0886058B828C838DF0E5B3
:0C2FD300122404F8E6125141A308E61293
:092FDF005141A308E6125141E53D
:0D2FE800122404F8740826FB74000836FC5F
:0E2FF5000886058B828C838DF074001251418A
:0D300300A37400125141A37400125141E565
:0D301000122404F886820886830886F012D8
:0D301D00303BA8120886820886830886F0E2
:0B302A007400125141A37400125141C8
:06303500851281D0122279
:0C303B00C012858112AA82AB83ACF07435
:0E3047000B2502FA74003503FB8A828B838C02
:0E305500F07400125141A37400125141A37493
:0430630000125141C5
:06306700851281D0122247
:0C306D00C012858112C082C083C0F0E553
:0C30790081240CF581A81208E512240740
:0E308500F9740526F77400083609F70809E605
:0D309300F7E5122407F88682088683088678
:0C30A000F01256D8FAA31256D8FBA31267
:0D30AC0056D8FCE5122404F8A60208A6037D
:0D30B90008A604E51224FBF8860208860331
:0D30C600088604E512240AF874022502F6BB
:0D30D3007400350308F608A604E512240475
:0E30E000F8860508860608860774022505FD99
:0E30EE0074003506FE8D828E838FF01256D848
:0C30FC00FDA31256D8FEA31256D8FFE523
:0D31080012240AF886820886830886F0EDFE
:0B311500125141A3EE125141A3EF1232
:0D3120005141E512240AF874052502F674E9
:0D312D0000350308F608A604E5122407F893
:0E313A0086820886830886F01256D8FDA312FE
:0931480056D8FEA31256D8FFE58B
:0D31510012240AF886820886830886F0EDB5
:0B315E00125141A3EE125141A3EF12E9
:0D3169005141E5122404F886050886060889
:0E317600860774022505FD74003506FE8D8265
:0E3184008E838FF01256D8FDA31256D8FEA3EC
:0E3192001256D8FF74052505FD74003506FEA3
:0D31A0008D828E838FF0EA125141A3EB1255
:0831AD005141A3EC125141E570
:0D31B500122404F8860508860608860774B3
:0E31C200022505FD74003506FE8D828E838F7A
:0D31D000F0EA125141A3EB125141A3EC12A1
:0D31DD005141E5122407F886820886830818
:0E31EA0086F0EA125141A3EB125141A3EC1200
:0E31F8005141740B2502FA74003503FB8A82E4
:0D3206008B838CF0A81208E6125141A3083A
:0B321300E6125141A308E6125141A849
:0D321E00120886820886830886F01256D8B2
:0B322B00FAA31256D8FB0ABA00010BF0
:0D323600A8120886820886830886F0EA1236
:073243005141A3EB125141C0
:06324A00851281D0122262
:0C325000C012858112C082C083C0F0E56E
:0D325C00812409F581E51224FBF8860508A0
:0E32690086060886078D828E838FF01256D857
:0E327700FAA31256D8FBBAFF05BBFF02800374
:0332850002335DB4
:0D328800C005C006C007A81208740226FC8D
:0E32950074000836FD0886068C828D838EF04C
:0B32A3001256D8FCA31256D8FDA3124F
:0D32AE0056D8FEE5122404F8A60408A60573
:0932BB0008A606D007D006D005D4
:0D32C400C005C006C007E5122404F886040A
:0E32D10008860508860674022504FC74003584
:0E32DF0005FD8C828D838EF01256D8FCA31252
:0E32ED0056D8FDA31256D8FE8C828D838EF02B
:0E32FB001256D8FCA31256D8FDC3EC9AED9BD8
:0D330900E433D007D006D005700302343243
:0D331600C005C006C007E5122404F88604B7
:0E33230008860508860674022504FC74003531
:0E33310005FD8C828D838EF01256D8FCA312FF
:09333F0056D8FDA31256D8FEE594
:0D334800122404F8A60408A60508A606D065
:0833550007D006D0050232C4C6
:0D335D00C005C006C007A81208740226FCB7
:0E336A0074000836FD0886068C828D838EF076
:0B3378001256D8FCA31256D8FDA31279
:0D33830056D8FEE5122404F8A60408A6059D
:0933900008A606D007D006D005FE
:0D339900C005C006C007E5122404F8860434
:0E33A60008860508860674022504FC740035AE
:0E33B40005FD8C828D838EF01256D8FCA3127C
:0E33C20056D8FDA31256D8FE8C828D838EF055
:0E33D0001256D8FCA31256D8FDC3EA9CEB9D02
:0D33DE00E433D007D006D00560030234327E
:0D33EB00C005C006C007E5122404F88604E2
:0E33F80008860508860674022504FC7400355C
:0E34060005FD8C828D838EF01256D8FCA31229
:0934140056D8FDA31256D8FEE5BE
:0D341D00122404F8A60408A60508A606D08F
:08342A0007D006D0050233991A
:0D343200E5122407F874022505F674003534
:0D343F000608F608A607E5122404F8860228
:0E344C0008860308860474022502FA7400350F
:0E345A0003FB8A828B838CF01256D8FAA312E1
:0934680056D8FBA31256D8FCE56E
:0D347100122407F886820886830886F0EA98
:0B347E00125141A3EB125141A3EC12CC
:0D3489005141E5122407F886820886830869
:0D34960086F01256D8FAA31256D8FBA312E6
:0E34A30056D8FC74052502FA74003503FB8A26
:0E34B100828B838CF0ED125141A3EE1251413B
:0E34BF00A3EF12514174052505FA740035067D
:0D34CD00FB8F048A828B838CF0E5122404AF
:0E34DA00F8E6125141A308E6125141A308E69C
:0D34E800125141E5122404F8860208860303
:0E34F50008860474022502FA74003503FB8A6F
:0E350300828B838CF0ED125141A3EE125141E8
:0E351100A3EF125141740B2505FD7400350621
:0C351F00FE8D828E838FF0A81208E61249
:0C352B005141A308E6125141A308E6122A
:0D3537005141A8120886820886830886F09C
:0E3544001256D8FAA31256D8FB0ABA00010B91
:0D355200A8120886820886830886F0EA1217
:07355F005141A3EB125141A1
:06356600851281D0122243
:0C356C00C012858112C082C083C0F0E54F
:0D35780081240CF581A81208740226FD7450
:0E358500000836FE0886078D828E838FF012B6
:0A35930056D8FAA31256D8FBA31273
:0D359D0056D8FCE512240AF874052502F644
:0D35AA007400350308F608A604A81208E511
:0D35B700122407F9740526F7740008360980
:0D35C400F70809E6F7E5122407F8868208EB
:0E35D10086830886F01256D8FAA31256D8FB4D
:0D35DF00A31256D8FCE512240AF8868208D3
:0E35EC0086830886F0EA125141A3EB1251418A
:0D35FA00A3EC125141E5122407F886820867
:0E36070086830886F01256D8FAA31256D8FB16
:0E361500A31256D8FC74022502FA7400350385
:0D362300FB8D828E838FF01256D8FDA3120E
:0E36300056D8FEA31256D8FF8A828B838CF0E8
:0C363E00ED125141A3EE125141A3EF1216
:0D364A005141A81208740B26FA74000836CE
:0E365700FB0886048A828B838CF01256D8FD05
:0B366500A31256D8FEA31256D8FFE5B2
:0D367000122404F8A60508A60608A607E522
:0C367D00122404F8E512240AF974052652
:0D368900F77400083609F70809E6F7E512A6
:0E369600240AF886820886830886F01256D829
:0C36A400FDA31256D8FEA31256D8FFA8B2
:0D36B0001208E6B5050C08E6B5060708E6A9
:0536BD00B507028003C7
:0336C2000236FBD2
:0D36C500E5122407F886820886830886F047
:0B36D2001256D8FDA31256D8FEA3121A
:0D36DD0056D8FFE512240AF886820886837D
:0E36EA000886F0ED125141A3EE125141A3EFFC
:0336F8001251412B
:0E36FB008A828B838CF07400125141A37400FC
:0A370900125141A37400125141E572
:0D371300122404F886820886830886F012CE
:0D37200056D8FAA31256D8FB1ABAFF011BA7
:0D372D00E5122404F886820886830886F0E1
:09373A00EA125141A3EB125141C6
:06374300851281D0122264
:0C374900C012858112C082C0837C007D0C
:0D375500007E00C0E0C0A8C2AFA81208C3EB
:0C3762007436967400089650030237C4B9
:02376E007F00DA
:03377000BF28006F
:0537730040030237C411
:0D377800C004C005C006EF75F037A424A101
:0D378500FA740035F0FB8A828B83E0FCBCF7
:0637920000047401800137
:01379800E44C
:0B379900D006D005D00470030237C03A
:0C37A4008A828B837401F00ABA00010BCA
:0E37B0008A048B057E01901F89E02401F0023F
:0237BE0037C40E
:0437C0000F0237704D
:0D37C400A81208C374BA967400089650034A
:0337D10002383883
:0B37D400BC0008BD0005BE0002800321
:0337DF0002383875
:0237E2007A006B
:0337E400BA1E000A
:0537E700400302383828
:0D37EC00C004C005C006EA75F0BBA4243976
:0D37F900FB740935F0FF8B828F83E0FCBC70
:06380600000474018001C2
:01380C00E4D7
:0B380D00D006D005D004700302383450
:0C3818008B828F837401F00BBB00010F4A
:0E3824008B048F057E01901F8AE02401F002C4
:02383200383824
:043834000A0237E469
:0E383800D0E053E080E5E042A8D0E0BC0008FC
:08384600BD0005BE0002800375
:03384E00023857E6
:063851007C007D007E00FA
:063857008C828D838EF0CF
:06385D00851281D0122249
:05386300C01285811276
:06386800851281D012223E
:015934000072
:015935000071
:0C386E00C012858112AA8475840FE5A7A2
:08387A0075A7FF8A8475B0FFF9
:06388200851281D0122224
:0A388800C012858112AA82C002124C
:0D3892000CE8D002A812181818B600028029
:01389F000325
:0338A0000238FCEF
:0938A300C374079A500302395264
:0838AC00EA25E02A9038B4730C
:0738B4000238CC0238D202F9
:0638BB0038D80238DE02DD
:0638C10038E40238EA02BF
:0538C70038F00238F6A4
:0638CC0043B00202395274
:0638D20043B00802395268
:0638D80043B0200239524A
:0638DE0043B00102395263
:0638E40043B0040239525A
:0638EA0043B01002395248
:0638F00043B04002395212
:0638F60043B080023952CC
:0938FC00C374079A50030239520B
:08390500EA25E02A90390D7358
:07390D0002392502392B02EB
:06391400393102393702CF
:06391A00393D02394302B1
:05392000394902394F96
:0639250053B0FD0239520F
:06392B0053B0F70239520F
:0639310053B0DF02395221
:0639370053B0FE023952FC
:06393D0053B0FB023952F9
:0639430053B0EF023952FF
:0639490053B0BF02395229
:03394F0053B07FF3
:03395200120D0B48
:06395500851281D0122250
:0C395B00C012858112AA827B00C002C04D
:0E39670003120CE8D003D002C374079A500379
:033975000239C054
:08397800EA25E02A9039807372
:0739800002399802399D0293
:0639870039A20239A7027B
:06398D0039AC0239B10261
:0539930039B60239BB4A
:053998007A020239C2B1
:05399D007A080239C2A6
:0539A2007A200239C289
:0539A7007A010239C2A3
:0539AC007A040239C29B
:0539B1007A100239C28A
:0539B6007A400239C255
:0539BB007A800239C210
:0239C0007B0189
:0639C200BB01030239DC29
:0839C800EA55B070030239D981
:0939D000EAF4FBEB52B00239DC11
:0339D900EA42B00F
:0339DC00120D0BBE
:0639DF00851281D01222C6
:0C39E500C012858112C082E581240BF520
:0C39F10081A8120808E4F608F6E512248C
:0639FD0007F8E4F608F6ED
:0D3A0300A8120808C3E6940808E664809441
:063A1000804003023B0CA4
:0E3A1600758203758300123749AF82AA83AB15
:0D3A2400F0E5122404F8A60708A60208A683
:0C3A310003A81208088604E5122404F81B
:0D3A3D0086820886830886F0EC125141E570
:0C3A4A00122404F8E5122409F974012686
:0D3A5600F77400083609F70809E6F7E512D5
:0D3A63002407F8747D26FF74000836FDE589
:0D3A7000122409F886820886830886F0EF8C
:0E3A7D00125141A3ED1251418F068D02ED331F
:0D3A8B0095E0FBFCE5122409F88682088610
:0E3A9800830886F0EE125141A3EA125141C09C
:0E3AA60005C0077400C0E07400C0E07400C0EA
:0C3AB400E0A81208E6C0E0E5122404F8C7
:0E3AC000E6C0E008E6C0E008E6C0E074BAC068
:0C3ACE00E07400C0E074DBC0E0743BC09A
:0C3ADA00E07402C0E075821275833B129C
:0D3AE600087BE58124F4F581D007D005E5CB
:0C3AF300122407F8A60708A605A8120870
:0D3AFF0008740126F674000836F6023A033A
:063B0C00851281D0122297
:0C3B1200C012858112058105810581AA81
:0C3B1E0082AB83ACF07582D875833B75D8
:0E3B2A00F002C002C003C004123C22D004D03E
:0D3B380003D002A81208A60208A60308A6E2
:013B4500047B
:0D3B4600A81208740126FD74000836FE0860
:0E3B530086078D828E838FF01256D8FAA31249
:0E3B610056D8FBEBC313CA13CAFB8A828B83B0
:0E3B6F00C005C006C007120B80D007D006D0DC
:0D3B7D0005A8120886820886830886F012CB
:0E3B8A0056D8FA8A82C005C006C00712395B01
:0D3B9800D007D006D0058D828E838FF012ED
:0E3BA50056D8FDA31256D8FEEEC313CD13CD95
:0D3BB300FE8D828E83120B80A81208868280
:0D3BC0000886830886F01256D8FA8A821211
:053BCD00395B023B46DC
:063BD200851281D01222D1
:033BD800E03B02CD
:053BDB004C4544780098
:0E3BE0004C454420666C617368207461736B01
:0C3BEE0020737461727465642E0D0A006F
:0C3BFA00C0128581127403C0E0758214B3
:0E3C0600121EEDAA82AB83ACF01581901F2335
:083C1400EAF0A3EBF0A3ECF0D1
:063C1C00851281D0122286
:053C2200C012858112B3
:063C2700851281D012227B
:0C3C2D00C012858112C082C08305810591
:0D3C3900810581E5122403FC7D007E0090D2
:0D3C46001F23E0FFA3E0FAA3E0FBA8120893
:0E3C5300E6C0E008E6C0E0C004C005C0068F71
:0E3C6100828A838BF0122714AA82E58124FB4D
:073C6F00F581BA0102800398
:033C7600023C8984
:0D3C7900A81208080886820886830886F0D5
:033C8600023C926B
:093C890075820075830075F000DE
:063C9200851281D0122210
:0B3C9800C012858112AA827B007C0014
:0E3CA300C3EB9401EC648094804003023D0862
:0C3CB100E503248BFDE504341FFE7F01B9
:0E3CBD00C002C003C0047400C0E07400C0E088
:0E3CCB007400C0E0C002C005C006C00774BA95
:0C3CD900C0E07400C0E074B1C0E0743EB4
:0C3CE500C0E07402C0E075820E75833DE3
:0E3CF10012087BE58124F4F581D004D003D0C5
:063CFF00020BBB00010CEA
:033D0500023CA3DA
:063D0800851281D0122299
:0C3D0E00C012858112E5812407F581AA0E
:0D3D1A0082AB83ACF07D007E00E512240535
:093D2700F8A60208A60308A60490
:0D3D3000A81208767BE408F608F608F6A84D
:0D3D3D001208741526F674EC0836F674654D
:0E3D4A000836F674010836F6C005C00674F798
:0E3D5800C0E074FFC0E074FFC0E074FFC0E084
:0D3D6600A8120886820886830886F008E609
:0E3D7300125700AA82AB83ACF0FFE58124FC5E
:0D3D8100F581D006D005A81208A60208A6FC
:0E3D8E000308A60408A607C005C0067407C0F7
:0E3D9C00E07400C0E07400C0E07400C0E0A855
:0D3DAA00120886820886830886F008E6125B
:0E3DB7005261AA82AB83ACF0FFE58124FCF5DB
:0D3DC50081D006D005A81208A60208A603AA
:0D3DD20008A60408A607A81208B6DA0F0814
:0E3DDF00B6CF0B08B6330708B6FE03023DF15F
:043DED007D017E00D6
:083DF100BD0005BE00028003C5
:033DF900023D3058
:0D3DFC00C0E0C0A8C2AFE5122405F88602A1
:0E3E09000886030886048A828B838CF074017D
:0E3E1700125141D0E053E080E5E042A8D0E037
:033E2500023D302B
:063E2800851281D0122278
:0C3E2E00C012858112E5812404F581A8F2
:0C3E3A0012087601E408F6A81208080837
:043E4600E4F608F6A0
:0D3E4A00A812080808C3E6940108E6648089
:073E570094804003023EA32A
:0C3E5E00A812080808E6248BF58208E68C
:0B3E6A00341FF583E0FABA0002800369
:033E7500023E7F8B
:073E7800A81208E4F608F6A9
:0C3E7F00A812080808E6248BF58208E66B
:0C3E8B00341FF5837400F0A8120808082A
:0C3E9700740126F674000836F6023E4A5C
:083EA300A8120886820886833C
:063EAB00851281D01222F5
:083EB100496E744D6174680054
:015936000070
:0C3EB900C012858112AA82C0027402C0EF
:0E3EC500E075820A121EEDAB82AC83ADF015E3
:0E3ED30081D002901F26EBF0A3ECF0A3EDF0DF
:0E3EE100C0027400C0E07400C0E07400C0E0D5
:0C3EEF00C0027426C0E0741FC0E0740123
:0D3EFB00C0E074BAC0E07400C0E07498C06C
:0C3F0800E07441C0E07402C0E07582402B
:0D3F140075834012087BE58124F4F581D00F
:0E3F2100027400C0E07400C0E07400C0E0C094
:0C3F2F00027426C0E0741FC0E07401C0E2
:0D3F3B00E074BAC0E07400C0E074A0C0E003
:0C3F48007441C0E07402C0E07582657531
:0B3F5400833F12087BE58124F4F58117
:063F5F00851281D0122240
:0C3F6500C012858112C082C083C0F0052C
:0D3F71008105810581E5122404F8E4F608BD
:033F7E00F67D00CD
:073F8100E5122406F87600AA
:0D3F8800E5122406F8C3E66480948340032C
:033F950002402ABD
:0C3F9800C005E5122404FF7D007E00A897
:0D3FA400120886820886830886F01256D81F
:0E3FB100FAA31256D8FBA31256D8FCC0057412
:0E3FBF0000C0E07400C0E0C007C005C0068A64
:0E3FCD00828B838CF012216EAA82E58124FB88
:0B3FDB00F581D005BA010474018001DB
:013FE600E4F6
:073FE700D0056003023FF367
:053FEE007D01024021ED
:053FF300BD0002800387
:033FF80002401371
:0E3FFB00C0E0C0A8C2AF901F8DE02401F0D03E
:0A400900E053E080E5E042A8D0E0BB
:0D401300E5122404F8740126F67400083646
:01402000F6A9
:09402100E5122406F806023F88AE
:0E402A007582C8758300C005120B80D0050298
:024038003F81C6
:06403A00851281D0122264
:0C404000C012858112C082C083C0F0E570
:0D404C00812407F581E5122406F8E4F6084A
:03405900F67F00EF
:0D405C00C007A8120886820886830886F037
:0B4069001256D8FFA31256D8FDA31278
:0E40740056D8FE8F828D838EF0C007122C8CE2
:0B408200E582D007D007700302414424
:0C408D00C007E5122404FD7E007F00A89F
:0D409900120886820886830886F01256D829
:0E40A600FAA31256D8FBA31256D8FCC007741A
:0E40B40000C0E07400C0E0C005C006C0078A6E
:0E40C200828B838CF0122714AA82E58124FBE6
:0B40D000F581D007BA010474018001E3
:0140DB00E400
:0740DC00D007700302405CF5
:0C40E300E5122404F8E5122406F986F02A
:0D40EF00E7B5F00B0886F009E7B5F0030215
:0240FC0041136E
:0C40FE007F01E5122404F8E5122406F905
:09410A00E6F70809E6F70241336B
:05411300BF0002800363
:034118000241332E
:0E411B00C0E0C0A8C2AF901F8CE02401F0D01D
:0A412900E053E080E5E042A8D0E09A
:0D413300E5122406F8740126F67400083623
:04414000F602405CE7
:0E4144007582C8758300C007120B80D0070279
:02415200405CCF
:06415400851281D0122249
:06415A00C01285811290E5
:0A4160001F8CE0FABA000302417759
:0A416A00901F8DE0FABA00028003F6
:0341740002417E87
:074177007A007B0002418287
:04417E007A017B0047
:0E418200901F8C7400F0901F8D7400F08A82E4
:024190008B831F
:06419200851281D012220B
:0841980051436F6E734E4200AB
:0841A0005150726F644E4200A1
:01593700006F
:01593800006E
:0C41A800C012858112C082C083C0F0C02C
:0D41B400E00581C0E0C0A8C2AFE5122405FF
:0D41C100F8A684758400750C017401C0E03F
:0D41CE00A8121818188682121EEDAF82AEDE
:0E41DB0083AAF01581901F29EFF0A3EEF0A348
:0D41E900EAF07401C0E0A8121818188682D0
:0E41F600121EEDAA82AB83ACF01581901F2C37
:0D420400EAF0A3EBF0A3ECF0A81208080804
:0E421100860408E6C42354E0CCC423CC6CCC55
:0E421F0054E0CC6CFD1818E6C423541F4CFC70
:0E422D0018860208E6C42354E0CAC423CA6AF5
:0E423B00CA54E0CA6AFB8A828B838CF0ED12B3
:0E42490050C5AA82AB83ACF0FDC002C003C01A
:0E42570004C0057582907583EB75F03A744DC6
:0E426500125640AA82AB83ACF0FDE58124FC2A
:0E427300F581C002C003C004C005758200754D
:0E428100834075F0807443125061AA82AB83B3
:0E428F00ACF0FDE58124FCF5818A828B838CE6
:0E429D00F0ED1250D8AA82AB83ACF0FD53892D
:0E42AB00084389204391108A8B8A8D759850A4
:0D42B900D2ACD28EE5122405F88684D0E048
:0E42C60053E080E5E042A8D0E07582007583E9
:0442D4000075F00081
:0642D800851281D01222C4
:0E42DE00C0E0C0F0C082C083C002C003C004B4
:0E42EC00C005C006C007C000C001C0D075D01C
:0C42FA0000C012858112E5812405F581C9
:0D4306007A00A81208087600C0E0C0A8C226
:07431300AF20980302435E96
:0C431A00C002AB99A81208A603C298E5E7
:0D432600122401FB7C007D00901F29E0FEA9
:0E433300A3E0FFA3E0FA7400C0E0C003C004E2
:0E434100C0058E828F838AF01224D3AA82E5F3
:0D434F008124FCF581EAD002700302435E78
:02435C007A01E4
:06435E002099030243CF89
:0C436400C002E5122402FB7C007D00E595
:0C437000122401FEA812080808A6060886
:0E437C007600087600901F2CE0FAA3E0FEA366
:0D438A00E0FFC003C004C005A81208080829
:0E439700E6C0E008E6C0E008E6C0E08A828EDC
:0E43A500838FF0122A4BAA82E58124FAF5815B
:0743B300BA0104740180014E
:0143BA00E41E
:0743BB00D00270030243CAA7
:0843C200A8120886990243CD00
:0343CA00750C016E
:0243CD00C29993
:0643CF00EA60030243DF77
:0A43D500A8120808E670030243E294
:0343DF00121CEEBF
:0B43E200D0E053E080E5E042A8D0E00E
:0C43ED00851281D012D0D0D001D000D0B9
:0E43F90007D006D005D004D003D002D083D068
:0644070082D0F0D0E0328B
:06440D00C012858112902F
:0D4413001F29E0FAA3E0FBA3E0FCE5122462
:0D442000F9F8E6C0E008E6C0E0E51224FB74
:0E442D00F8E6C0E008E6C0E008E6C0E08A82DB
:0E443B008B838CF0122714AA82E58124FBF5F6
:0744490081EA7003024456F2
:06445000758201024459CF
:034456007582006C
:06445900851281D0122241
:0C445F00C012858112C0E0C0A8C2AFE509
:06446B000CB40102800305
:034471000244837F
:0C447400A8121818188699750C007A011F
:034480000244C82B
:0C448300E51224FDFB8B027C007D009004
:0D448F001F2CE0FEA3E0FFA3E0FBE51224DC
:0E449C00FBF8E6C0E008E6C0E0C002C004C0C5
:0E44AA00058E828F838BF012216EAB82E5812E
:0B44B80024FBF5818B02BA0002800398
:0344C3000244C8E8
:0244C6007A0179
:0D44C800D0E053E080E5E042A8D0E08A8219
:0644D500851281D01222C5
:0544DB00C012858112F2
:0644E000851281D01222BA
:0844E600C012858112AA82E5D3
:0D44EE001224F9F8901F91E6F0C002741836
:0D44FB00C0E0E51224FAF8868208868308E6
:0E45080086F008E61241A81581D002EA14FBE5
:0E451600C0027400C0E07400C0E07400C0E099
:0E452400C0037400C0E07400C0E07400C0E08A
:0D45320074BAC0E07400C0E0749EC0E07474
:0C453F0047C0E07402C0E075829A7583EA
:0D454B004512087BE58124F4F581D002744F
:0E45580000C0E07400C0E07400C0E0C0027457
:0E45660000C0E07400C0E07400C0E074BAC091
:0C457400E07400C0E074A4C0E07447C014
:0C458000E07402C0E075824875834612AA
:08458C00087BE58124F4F581B0
:06459400851281D0122205
:05459A00C01285811232
:02459F007A415F
:0E45A100C3745864808AF063F08095F0500374
:0345AF000245F6CC
:0E45B200901F8EE0FBA3E0FCA3E0FDC00274AE
:0E45C00000C0E07400C0E0C0028B828C838DCE
:0E45CE00F012445FAB82158115811581D00279
:0545DC00BB0102800399
:0345E1000245F29E
:0E45E400901F91E0FB8B82C00212395BD00267
:0445F2000A0245A1D3
:0E45F600901F91E0FA7400C0E08A82123888AB
:0E4604001581120ED6AA82AB837496C0E074A4
:0E46120000C0E08A828B8312576CAC82AD83AD
:0E462000158115818C028D03C3EA9432EB9450
:06462E00004003024638C3
:044634007A327B005B
:0A4638008A828B83120B8002459FDB
:06464200851281D0122256
:0C464800C012858112058105810581A842
:084654001208080876007B0043
:05465C00A812087641E0
:0D466100A81208C37458648086F063F080CE
:07466E0095F050030246EB3A
:0C467500C003E5122402FD7E007F0090CF
:0E4681001F8EE0FBA3E0FAA3E0FCC00374FF71
:0E468F00C0E074FFC0E0C005C006C0078B820B
:0E469D008A838CF012440DAA82E58124FBF57D
:0B46AB0081D003D003EA70030246E454
:0C46B600A8120808A9120986F0E7B5F068
:0346C20002800370
:0346C5000246DAD0
:0E46C800901F91E0FA0A8A82C00312395BD07B
:0446D600030246E4B1
:0A46DA00A81208080876010246EB5A
:0746E400A81208060246615E
:0E46EB00901F91E0FA0AC0037400C0E08A82BA
:0D46F9001238881581D003A812080808B6F1
:044706000102800329
:03470A000247590A
:0A470D00A8120808B6580302474D31
:0C471700E5122402FA8A037C007D009069
:0E4723001F8EE0FEA3E0FFA3E0FA74FFC0E0EB
:0E47310074FFC0E0C003C004C0058E828F83F9
:0E473F008AF012440DE58124FBF58102470D3E
:0C474D007B01A812080808760002465CF8
:05475900BB000280031B
:03475E0002465CB4
:0A476100901F92E02401F002465C74
:06476B00851281D012222C
:06477100C01285811290C8
:094777001F92E0FABA000280036F
:0347800002478A63
:074783007A007B0002478E63
:04478A007A017B0035
:0A478E00901F927400F08A828B8362
:06479800851281D01222FF
:06479E00434F4D5478006A
:0647A400434F4D52780066
:035939000000006B
:01593C00006A
:01593D000069
:0A591700901F2F7400F0A37400F03D
:0C47AA00C012858112C082E5812407F551
:0E47B60081758208758300123749AB82AC838F
:0D47C400ADF0A8120808A60308A60408A678
:0D47D10005A8120808B6000B08B60007087E
:0647DE00B600030249A22F
:0E47E4007400C0E0758201121EEDAE82AF833C
:0D47F200AAF01581A81208088682088683A7
:0E47FF000886F0EE125141A3EF125141A3EAD9
:0E480D00125141BE000ABF0007BA0004740138
:02481B0080011A
:01481D00E4B6
:05481E00600302486088
:0D482300A812080886820886830886F01215
:0A48300056D8FEA31256D8FFA312BB
:0E483A0056D8FA7400C0E07400C0E07400C0EC
:0E484800E07400C0E07400C0E08E828F838AAE
:0A485600F012216EE58124FBF581CC
:0D486000A812080886820886830886F012D8
:0A486D0056D8FEA31256D8FFA3127E
:0E48770056D8FABE000ABF0007BA000474014A
:024885008001B0
:01488700E44C
:0548880060030249A2DB
:0D488D00A8120808740326FE74000836FF08
:0E489A00088602758204758300C002C006C045
:0E48A80007123749AB82AC83ADF0D007D006C3
:0E48B600D0028E828F838AF0EB125141A3EC68
:0E48C400125141A3ED1251418E828F838AF072
:0B48D2001256D8FEA31256D8FFA31206
:0E48DD0056D8FA8E828F838AF074FF125141F2
:0E48EB00A37400125141A37400125141A37432
:0D48F90000125141A8120808740626FA7436
:0E490600000836FB0886048A828B838CF074CE
:0E49140000125141A374001251417400C0E022
:0D4922007400C0E07400C0E07400C0E0A8A4
:0D492F00120808E6C0E008E6C0E008E6C097
:0D493C00E074BAC0E07400C0E074EAC0E0AE
:0C494900744FC0E07402C0E07582A075DD
:0D495500834B12087BE58124F4F58174008A
:0E496200C0E07400C0E07400C0E07400C0E06B
:0D497000A8120808E6C0E008E6C0E008E66E
:0D497D00C0E074BAC0E07400C0E074F2C085
:0C498A00E0744FC0E07402C0E07582A031
:0C49960075834B12087BE58124F4F58149
:0E49A200758208758300123749AB82AC83AD75
:0D49B000F0E5122405F8A60308A60408A6E9
:0D49BD0005E5122405F8B6000B08B600074A
:0749CA0008B60003024B9A3E
:0E49D1007400C0E0758201121EEDAE82AF834D
:0D49DF00AAF01581E5122405F886820886ED
:0E49EC00830886F0EE125141A3EF125141A351
:0E49FA00EA125141BE000ABF0007BA00047461
:034A080001800129
:014A0B00E4C6
:054A0C006003024A4FA7
:0D4A1100E5122405F886820886830886F0E9
:0B4A1E001256D8FEA31256D8FFA312B8
:0E4A290056D8FA7400C0E07400C0E07400C0FB
:0E4A3700E07400C0E07400C0E08E828F838ABD
:0A4A4500F012216EE58124FBF581DB
:0D4A4F00E5122405F886820886830886F0AB
:0B4A5C001256D8FEA31256D8FFA3127A
:0E4A670056D8FABE000ABF0007BA0004740158
:024A75008001BE
:014A7700E45A
:054A78006003024B9AEF
:0D4A7D00E5122405F8740326FE74000836C7
:0E4A8A00FF088602758204758300C002C00614
:0E4A9800C007123749AB82AC83ADF0D007D017
:0E4AA60006D0028E828F838AF0EB125141A35C
:0E4AB400EC125141A3ED1251418E828F838A84
:0C4AC200F01256D8FEA31256D8FFA31223
:0E4ACE0056D8FA8E828F838AF074FF125141FF
:0E4ADC00A3740F125141A37400125141A37430
:0D4AEA0000125141E5122405F8740626FA69
:0E4AF70074000836FB0886048A828B838CF0DC
:0E4B05007464125141A374001251417400C037
:0D4B1300E07400C0E07400C0E0A81208E6E5
:0D4B2000C0E0E5122405F8E6C0E008E6C09C
:0E4B2D00E008E6C0E074BAC0E07400C0E074B6
:0C4B3B00FAC0E0744FC0E07402C0E075E6
:064B470082A075834B12F1
:0E4B4D00087BE58124F4F5817400C0E074005B
:0D4B5B00C0E07400C0E0A81208E6C0E0E56C
:0D4B6800122405F8E6C0E008E6C0E008E60B
:0D4B7500C0E074BAC0E07400C0E07402C07B
:0C4B8200E07450C0E07402C0E07582A036
:0C4B8E0075834B12087BE58124F4F5814F
:064B9A00851281D01222F9
:0C4BA000C012858112E5812415F581AA60
:0D4BAC0082AB83ACF0E512240FF8E4F608AC
:0E4BB900F6C0E0C0A8C2AF901F9BE0FDA3E0D5
:0C4BC700FEE5122411F8A60508A60690D1
:0E4BD3001F9BE02401F0A3E03400F0D0E0537B
:0D4BE100E080E5E042A8D0E07582E7758332
:0D4BEE004F75F002C002C003C004123C224B
:0D4BFB00D004D003D002A81208A60208A61C
:0E4C08000308A60474032502FF74003503FDA3
:0E4C16008C068F828D838EF01256D8FFA3126B
:094C240056D8FDA31256D8FEE596
:0D4C2D00122404F8A60708A60508A60674C0
:0E4C3A00062502FD74003503FE8C078D828E68
:0E4C4800838FF01256D8FDA31256D8FEED4E03
:054C56007003024C6E2A
:0D4C5B00E5122407F876FF08760F087600B2
:064C6800087600024C7CFE
:0D4C6E00E5122407F876FFE408F608F608C2
:014C7B00F642
:0C4C7C00A81208E5122413F9740626F7AC
:0D4C88007400083609F70809E6F7E5122464
:0E4C950013F886820886830886F01256D8FD32
:0D4CA300A31256D8FEA81208868208868348
:0E4CB0000886F01256D8FCA31256D8FAA312AA
:0E4CBE0056D8FBC005C0067400C0E07400C0EC
:0E4CCC00E07400C0E08C828A838BF012271403
:0D4CDA00AA82E58124FBF581BA0102800366
:034CE700024F0C6D
:0D4CEA00E5122404F88602088603088604FB
:0E4CF7008A828B838CF01256D8FAA31256D8FC
:0C4D0500FBA31256D8FCA31256D8FDE503
:0D4D1100122407F8E6B5021308E6B5030EFC
:0E4D1E0008E6B5040908E6B505047401800135
:014D2C00E4A2
:054D2D006003024D4887
:0A4D32007582E475834F75F00212DC
:0C4D3C003C22E512240FF87601E408F692
:0D4D4800E512240BF8E4F608F608F608F66C
:0C4D5500E512240BF8E5122407F9C3E76F
:0E4D61009609E7089609E7089609E7089650B4
:044D6F0003024E24C9
:0D4D7300E5122404F886060886070886026B
:0D4D80008E828F838AF0E512240BF8E61274
:0C4D8D005141A308E6125141A308E612B0
:094D99005141A308E6125141E565
:0D4DA200122404F886020886030886048A9D
:0E4DAF00828B838CF01256D8FAA31256D8FBD2
:0B4DBD00A31256D8FCA31256D8FDE547
:0D4DC80012240BF8E6B5021208E6B5030D43
:0D4DD50008E6B5040808E6B50503024E091E
:0D4DE200E512240FF8B6000608B6000280A6
:014DEF0003C0
:034DF000024DFF72
:0A4DF3007582E475834F75F002121B
:024DFD003C2256
:0A4DFF00E512240FF87601E408F62F
:0D4E0900E512240BF8740126F6740008363B
:0E4E1600F674000836F674000836F6024D55A4
:0C4E2400A8120886820886830886F01217
:0A4E300056D8FAA31256D8FBA312BD
:0E4E3A0056D8FC7400C0E07400C0E07400C0E4
:0E4E4800E07400C0E07400C0E08A828B838CAE
:0E4E5600F012216EAA82E58124FBF581BA00DC
:034E6400028003C6
:034E6700024E8078
:0A4E6A007582E475834F75F00212A3
:0C4E74003C22E512240FF87601E408F659
:0D4E8000E512240FF8B6000608B600028007
:014E8D000321
:034E8E00024ED5FC
:0D4E9100E5122411F8C3E6940408E66480DD
:074E9E0094804003024ED591
:0D4EA500E5122411F8860208E6CA25E0CACD
:0C4EB20033FBE5022493FAE503341FFBF8
:0E4EBE008A828B83E0FCA3E0FD0CBC00010D9A
:094ECC008A828B83ECF0A3EDF067
:0D4ED500E5122413F886820886830886F013
:0E4EE2001256D8FAA31256D8FB740AC0E07418
:0E4EF00000C0E08A828B8312519FAA82AB839E
:0E4EFE00158115818A828B83120B80024C7CF9
:0D4F0C00E5122413F886820886830886F0DB
:0E4F19001256D8FAA31256D8FBBA0005BB00F8
:034F270002800302
:034F2A00024C7CBA
:064F2D00121CEE024C7C98
:064F3300851281D012225C
:0C4F3900C0128581127A017B007C007D93
:014F4500006B
:0E4F4600C3EC9404ED648094804003024FDAC3
:0E4F5400C002C0038C06EDCE25E0CE33FFE593
:0C4F620006242FF582E507341FF583E0DC
:0D4F6E00FAA3E0FBE5062493F582E5073485
:0D4F7B001FF583E0FEA3E0FFEAB50608EB9A
:074F8800B50704740180016C
:014F8F00E43D
:094F9000D003D0027003024F9D12
:044F99007A007B001F
:0E4F9D00C002C0038C06EDCE25E0CE33FFE54A
